{
  "contractName": "Car",
  "abi": [
    {
      "inputs": [],
      "name": "brand",
      "outputs": [
        {
          "internalType": "string",
          "name": "",
          "type": "string"
        }
      ],
      "stateMutability": "view",
      "type": "function"
    },
    {
      "inputs": [],
      "name": "colour",
      "outputs": [
        {
          "internalType": "string",
          "name": "",
          "type": "string"
        }
      ],
      "stateMutability": "view",
      "type": "function"
    },
    {
      "inputs": [
        {
          "internalType": "string",
          "name": "_brand",
          "type": "string"
        },
        {
          "internalType": "string",
          "name": "_colour",
          "type": "string"
        }
      ],
      "name": "init",
      "outputs": [],
      "stateMutability": "nonpayable",
      "type": "function"
    },
    {
      "inputs": [],
      "name": "getColour",
      "outputs": [
        {
          "internalType": "string",
          "name": "",
          "type": "string"
        }
      ],
      "stateMutability": "view",
      "type": "function"
    },
    {
      "inputs": [],
      "name": "getBrand",
      "outputs": [
        {
          "internalType": "string",
          "name": "",
          "type": "string"
        }
      ],
      "stateMutability": "view",
      "type": "function"
    }
  ],
  "bytecode": "0x608060405234801561001057600080fd5b506108e5806100206000396000f3fe608060405234801561001057600080fd5b50600436106100575760003560e01c8063216ec69b1461005c5780632d9fff011461007a5780633dbc0610146100985780637029144c146100b6578063a3946e26146100d2575b600080fd5b6100646100f0565b60405161007191906103e4565b60405180910390f35b610082610182565b60405161008f91906103e4565b60405180910390f35b6100a0610210565b6040516100ad91906103e4565b60405180910390f35b6100d060048036038101906100cb919061054f565b61029e565b005b6100da6102c2565b6040516100e791906103e4565b60405180910390f35b6060600080546100ff906105f6565b80601f016020809104026020016040519081016040528092919081815260200182805461012b906105f6565b80156101785780601f1061014d57610100808354040283529160200191610178565b820191906000526020600020905b81548152906001019060200180831161015b57829003601f168201915b5050505050905090565b6001805461018f906105f6565b80601f01602080910402602001604051908101604052809291908181526020018280546101bb906105f6565b80156102085780601f106101dd57610100808354040283529160200191610208565b820191906000526020600020905b8154815290600101906020018083116101eb57829003601f168201915b505050505081565b6000805461021d906105f6565b80601f0160208091040260200160405190810160405280929190818152602001828054610249906105f6565b80156102965780601f1061026b57610100808354040283529160200191610296565b820191906000526020600020905b81548152906001019060200180831161027957829003601f168201915b505050505081565b81600190816102ad91906107dd565b5080600090816102bd91906107dd565b505050565b6060600180546102d1906105f6565b80601f01602080910402602001604051908101604052809291908181526020018280546102fd906105f6565b801561034a5780601f1061031f5761010080835404028352916020019161034a565b820191906000526020600020905b81548152906001019060200180831161032d57829003601f168201915b5050505050905090565b600081519050919050565b600082825260208201905092915050565b60005b8381101561038e578082015181840152602081019050610373565b60008484015250505050565b6000601f19601f8301169050919050565b60006103b682610354565b6103c0818561035f565b93506103d0818560208601610370565b6103d98161039a565b840191505092915050565b600060208201905081810360008301526103fe81846103ab565b905092915050565b6000604051905090565b600080fd5b600080fd5b600080fd5b600080fd5b7f4e487b7100000000000000000000000000000000000000000000000000000000600052604160045260246000fd5b61045c8261039a565b810181811067ffffffffffffffff8211171561047b5761047a610424565b5b80604052505050565b600061048e610406565b905061049a8282610453565b919050565b600067ffffffffffffffff8211156104ba576104b9610424565b5b6104c38261039a565b9050602081019050919050565b82818337600083830152505050565b60006104f26104ed8461049f565b610484565b90508281526020810184848401111561050e5761050d61041f565b5b6105198482856104d0565b509392505050565b600082601f8301126105365761053561041a565b5b81356105468482602086016104df565b91505092915050565b6000806040838503121561056657610565610410565b5b600083013567ffffffffffffffff81111561058457610583610415565b5b61059085828601610521565b925050602083013567ffffffffffffffff8111156105b1576105b0610415565b5b6105bd85828601610521565b9150509250929050565b7f4e487b7100000000000000000000000000000000000000000000000000000000600052602260045260246000fd5b6000600282049050600182168061060e57607f821691505b602082108103610621576106206105c7565b5b50919050565b60008190508160005260206000209050919050565b60006020601f8301049050919050565b600082821b905092915050565b6000600883026106897fffffffffffffffffffffffffffffffffffffffffffffffffffffffffffffffff8261064c565b610693868361064c565b95508019841693508086168417925050509392505050565b6000819050919050565b6000819050919050565b60006106da6106d56106d0846106ab565b6106b5565b6106ab565b9050919050565b6000819050919050565b6106f4836106bf565b610708610700826106e1565b848454610659565b825550505050565b600090565b61071d610710565b6107288184846106eb565b505050565b5b8181101561074c57610741600082610715565b60018101905061072e565b5050565b601f8211156107915761076281610627565b61076b8461063c565b8101602085101561077a578190505b61078e6107868561063c565b83018261072d565b50505b505050565b600082821c905092915050565b60006107b460001984600802610796565b1980831691505092915050565b60006107cd83836107a3565b9150826002028217905092915050565b6107e682610354565b67ffffffffffffffff8111156107ff576107fe610424565b5b61080982546105f6565b610814828285610750565b600060209050601f8311600181146108475760008415610835578287015190505b61083f85826107c1565b8655506108a7565b601f19841661085586610627565b60005b8281101561087d57848901518255600182019150602085019450602081019050610858565b8683101561089a5784890151610896601f8916826107a3565b8355505b6001600288020188555050505b50505050505056fea26469706673582212204ea6bcb4b87ecad43b94e53b481f3205ca1b92d17517012ed5bae3f7e87054c164736f6c63430008130033",
  "immutableReferences": {},
  "source": "// SPDX-License-Identifier: UNLICENSED\npragma solidity ^0.8.0;\n\ncontract Car {\n    string public colour;\n    string public brand;\n    \n    // use this function instead of the constructor\n    // since creation will be done using createClone() function\n    function init(string memory _brand, string memory _colour) external {\n        brand = _brand;\n        colour = _colour;\n    }\n\n    function getColour() external view returns(string memory){\n        return colour;\n    }\n\n    function getBrand() external view returns(string memory){\n        return brand;\n    }\n}\n",
  "sourcePath": "/home/liam/Liam/Uni/Magistrale/Blockchain/traceability-DHT/contracts/Car.sol",
  "compiler": {
    "name": "solc",
    "version": "0.8.19+commit.7dd6d404.Emscripten.clang"
  },
  "schemaVersion": "3.4.13",
  "updatedAt": "2023-05-19T11:18:29.441Z",
  "devdoc": {
    "kind": "dev",
    "methods": {},
    "version": 1
  },
  "userdoc": {
    "kind": "user",
    "methods": {},
    "version": 1
  }
}