{
  "contractName": "CarFactory",
  "abi": [
    {
      "anonymous": false,
      "inputs": [
        {
          "indexed": false,
          "internalType": "contract Car",
          "name": "car",
          "type": "address"
        },
        {
          "indexed": false,
          "internalType": "string",
          "name": "message",
          "type": "string"
        }
      ],
      "name": "carAdded",
      "type": "event"
    },
    {
      "inputs": [
        {
          "internalType": "uint256",
          "name": "",
          "type": "uint256"
        }
      ],
      "name": "CarAddresses",
      "outputs": [
        {
          "internalType": "contract Car",
          "name": "",
          "type": "address"
        }
      ],
      "stateMutability": "view",
      "type": "function"
    },
    {
      "inputs": [],
      "name": "implementationAddress",
      "outputs": [
        {
          "internalType": "address",
          "name": "",
          "type": "address"
        }
      ],
      "stateMutability": "view",
      "type": "function"
    },
    {
      "inputs": [],
      "name": "addCar",
      "outputs": [],
      "stateMutability": "nonpayable",
      "type": "function"
    }
  ],
  "bytecode": "0x608060405234801561001057600080fd5b50610554806100206000396000f3fe608060405234801561001057600080fd5b50600436106100415760003560e01c80636bd228c314610046578063b97a231914610076578063f1354acc14610094575b600080fd5b610060600480360381019061005b9190610324565b61009e565b60405161006d91906103d0565b60405180910390f35b61007e6100dd565b60405161008b919061040c565b60405180910390f35b61009c610103565b005b600081815481106100ae57600080fd5b906000526020600020016000915054906101000a900473ffffffffffffffffffffffffffffffffffffffff1681565b600160009054906101000a900473ffffffffffffffffffffffffffffffffffffffff1681565b6000610130600160009054906101000a900473ffffffffffffffffffffffffffffffffffffffff1661022f565b90508073ffffffffffffffffffffffffffffffffffffffff16638129fc1c6040518163ffffffff1660e01b8152600401600060405180830381600087803b15801561017a57600080fd5b505af115801561018e573d6000803e3d6000fd5b505050506000819080600181540180825580915050600190039060005260206000200160009091909190916101000a81548173ffffffffffffffffffffffffffffffffffffffff021916908373ffffffffffffffffffffffffffffffffffffffff1602179055507fee86969cba81e328bc35b3c347b379ab02902d90cc438dbb57d42f9422480b80816040516102249190610484565b60405180910390a150565b6000763d602d80600a3d3981f3363d3d373d3d3d363d730000008260601b60e81c176000526e5af43d82803e903d91602b57fd5bf38260781b17602052603760096000f09050600073ffffffffffffffffffffffffffffffffffffffff168173ffffffffffffffffffffffffffffffffffffffff16036102e4576040517f08c379a00000000000000000000000000000000000000000000000000000000081526004016102db906104fe565b60405180910390fd5b919050565b600080fd5b6000819050919050565b610301816102ee565b811461030c57600080fd5b50565b60008135905061031e816102f8565b92915050565b60006020828403121561033a576103396102e9565b5b60006103488482850161030f565b91505092915050565b600073ffffffffffffffffffffffffffffffffffffffff82169050919050565b6000819050919050565b600061039661039161038c84610351565b610371565b610351565b9050919050565b60006103a88261037b565b9050919050565b60006103ba8261039d565b9050919050565b6103ca816103af565b82525050565b60006020820190506103e560008301846103c1565b92915050565b60006103f682610351565b9050919050565b610406816103eb565b82525050565b600060208201905061042160008301846103fd565b92915050565b600082825260208201905092915050565b7f4361722061646465642100000000000000000000000000000000000000000000600082015250565b600061046e600a83610427565b915061047982610438565b602082019050919050565b600060408201905061049960008301846103c1565b81810360208301526104aa81610461565b905092915050565b7f455243313136373a20637265617465206661696c656400000000000000000000600082015250565b60006104e8601683610427565b91506104f3826104b2565b602082019050919050565b60006020820190508181036000830152610517816104db565b905091905056fea2646970667358221220f8eb809a17e1ca098af35429d0a00927c7d1ea84aab299a94feaca1faa0e0b9064736f6c63430008130033",
  "immutableReferences": {},
  "source": "// SPDX-License-Identifier: UNLICENSED\npragma solidity ^0.8.0;\n\nimport \"@openzeppelin/contracts/proxy/Clones.sol\";\nimport \"./Car.sol\";\n\ncontract CarFactory {\n  //Creating an array of neb crew addresses\n      Car[] public CarAddresses;\n      address public implementationAddress;\n      event carAdded(Car car, string message);\n\n      function addCar() public {\n        //Creating a new crew object, you need to pay //for the deployment of this contract everytime - $$$$\n        Car carAddress =  Car(Clones.clone(implementationAddress));\n\n        // since the clone create a proxy, the constructor is redundant and you have to use the initialize function\n        carAddress.initialize(); \n\n        //Adding the new crew to our list of crew addresses\n        CarAddresses.push(carAddress);\n        emit carAdded(carAddress, \"Car added!\");\n    }\n}",
  "sourcePath": "/home/liam/Liam/Uni/Magistrale/Blockchain/traceability-DHT/contracts/CarFactory.sol",
  "compiler": {
    "name": "solc",
    "version": "0.8.19+commit.7dd6d404.Emscripten.clang"
  },
  "schemaVersion": "3.4.13",
  "updatedAt": "2023-05-17T19:11:36.214Z",
  "devdoc": {
    "kind": "dev",
    "methods": {},
    "version": 1
  },
  "userdoc": {
    "kind": "user",
    "methods": {},
    "version": 1
  }
}