{
  "contractName": "CarFactory",
  "abi": [
    {
      "inputs": [
        {
          "internalType": "address",
          "name": "_masterContract",
          "type": "address"
        }
      ],
      "stateMutability": "nonpayable",
      "type": "constructor"
    },
    {
      "inputs": [
        {
          "internalType": "uint256",
          "name": "",
          "type": "uint256"
        }
      ],
      "name": "cars",
      "outputs": [
        {
          "internalType": "contract Car",
          "name": "",
          "type": "address"
        }
      ],
      "stateMutability": "view",
      "type": "function"
    },
    {
      "inputs": [
        {
          "internalType": "uint256",
          "name": "data",
          "type": "uint256"
        }
      ],
      "name": "createCar",
      "outputs": [],
      "stateMutability": "nonpayable",
      "type": "function"
    },
    {
      "inputs": [],
      "name": "getCars",
      "outputs": [
        {
          "internalType": "contract Car[]",
          "name": "",
          "type": "address[]"
        }
      ],
      "stateMutability": "view",
      "type": "function"
    }
  ],
  "bytecode": "0x608060405234801561001057600080fd5b50604051610642380380610642833981810160405281019061003291906100dc565b80600160006101000a81548173ffffffffffffffffffffffffffffffffffffffff021916908373ffffffffffffffffffffffffffffffffffffffff16021790555050610109565b600080fd5b600073ffffffffffffffffffffffffffffffffffffffff82169050919050565b60006100a98261007e565b9050919050565b6100b98161009e565b81146100c457600080fd5b50565b6000815190506100d6816100b0565b92915050565b6000602082840312156100f2576100f1610079565b5b6000610100848285016100c7565b91505092915050565b61052a806101186000396000f3fe608060405234801561001057600080fd5b50600436106100415760003560e01c806317c3928614610046578063c072bc0114610064578063f7746e3614610080575b600080fd5b61004e6100b0565b60405161005b9190610416565b60405180910390f35b61007e60048036038101906100799190610473565b61013e565b005b61009a60048036038101906100959190610473565b61023f565b6040516100a791906104af565b60405180910390f35b6060600080548060200260200160405190810160405280929190818152602001828054801561013457602002820191906000526020600020905b8160009054906101000a900473ffffffffffffffffffffffffffffffffffffffff1673ffffffffffffffffffffffffffffffffffffffff16815260200190600101908083116100ea575b5050505050905090565b600061016b600160009054906101000a900473ffffffffffffffffffffffffffffffffffffffff1661027e565b90508073ffffffffffffffffffffffffffffffffffffffff1663b7b0422d836040518263ffffffff1660e01b81526004016101a691906104d9565b600060405180830381600087803b1580156101c057600080fd5b505af11580156101d4573d6000803e3d6000fd5b505050506000819080600181540180825580915050600190039060005260206000200160009091909190916101000a81548173ffffffffffffffffffffffffffffffffffffffff021916908373ffffffffffffffffffffffffffffffffffffffff1602179055505050565b6000818154811061024f57600080fd5b906000526020600020016000915054906101000a900473ffffffffffffffffffffffffffffffffffffffff1681565b6000808260601b90506040517f3d602d80600a3d3981f3363d3d373d3d3d363d7300000000000000000000000081528160148201527f5af43d82803e903d91602b57fd5bf3000000000000000000000000000000000060288201526037816000f092505050919050565b600081519050919050565b600082825260208201905092915050565b6000819050602082019050919050565b600073ffffffffffffffffffffffffffffffffffffffff82169050919050565b6000819050919050565b600061035961035461034f84610314565b610334565b610314565b9050919050565b600061036b8261033e565b9050919050565b600061037d82610360565b9050919050565b61038d81610372565b82525050565b600061039f8383610384565b60208301905092915050565b6000602082019050919050565b60006103c3826102e8565b6103cd81856102f3565b93506103d883610304565b8060005b838110156104095781516103f08882610393565b97506103fb836103ab565b9250506001810190506103dc565b5085935050505092915050565b6000602082019050818103600083015261043081846103b8565b905092915050565b600080fd5b6000819050919050565b6104508161043d565b811461045b57600080fd5b50565b60008135905061046d81610447565b92915050565b60006020828403121561048957610488610438565b5b60006104978482850161045e565b91505092915050565b6104a981610372565b82525050565b60006020820190506104c460008301846104a0565b92915050565b6104d38161043d565b82525050565b60006020820190506104ee60008301846104ca565b9291505056fea26469706673582212207aea8bfbdaf835bf04b9d2135f8bcb9d0c6a7bf887ce689f778af8d0db609c3d64736f6c63430008130033",
  "immutableReferences": {},
  "source": "// SPDX-License-Identifier: UNLICENSED\npragma solidity ^0.8.0;\n\nimport \"./Car.sol\";\nimport \"./CloneFactory.sol\";\n\ncontract CarFactory is CloneFactory {\n     Car[] public cars;\n     address masterContract;\n\n     constructor(address _masterContract){\n         masterContract = _masterContract;\n     }\n\n     function createCar(uint data) external{\n        Car car = Car(createClone(masterContract));\n        car.init(data);\n        cars.push(car);\n     }\n\n     function getCars() external view returns(Car[] memory){\n         return cars;\n     }\n}",
  "sourcePath": "/home/liam/Liam/Uni/Magistrale/Blockchain/traceability-DHT/contracts/CarFactory.sol",
  "compiler": {
    "name": "solc",
    "version": "0.8.19+commit.7dd6d404.Emscripten.clang"
  },
  "schemaVersion": "3.4.13",
  "updatedAt": "2023-05-18T14:23:33.389Z",
  "devdoc": {
    "kind": "dev",
    "methods": {},
    "version": 1
  },
  "userdoc": {
    "kind": "user",
    "methods": {},
    "version": 1
  }
}