{
  "contractName": "CarFactory",
  "abi": [
    {
      "inputs": [
        {
          "internalType": "address",
          "name": "_libraryAddress",
          "type": "address"
        }
      ],
      "stateMutability": "nonpayable",
      "type": "constructor"
    },
    {
      "anonymous": false,
      "inputs": [
        {
          "indexed": false,
          "internalType": "address",
          "name": "newCarAddress",
          "type": "address"
        }
      ],
      "name": "CarCreated",
      "type": "event"
    },
    {
      "anonymous": false,
      "inputs": [
        {
          "indexed": true,
          "internalType": "address",
          "name": "previousOwner",
          "type": "address"
        },
        {
          "indexed": true,
          "internalType": "address",
          "name": "newOwner",
          "type": "address"
        }
      ],
      "name": "OwnershipTransferred",
      "type": "event"
    },
    {
      "inputs": [
        {
          "internalType": "address",
          "name": "",
          "type": "address"
        }
      ],
      "name": "carInfos",
      "outputs": [
        {
          "internalType": "string",
          "name": "brand",
          "type": "string"
        },
        {
          "internalType": "string",
          "name": "colour",
          "type": "string"
        }
      ],
      "stateMutability": "view",
      "type": "function"
    },
    {
      "inputs": [],
      "name": "libraryAddress",
      "outputs": [
        {
          "internalType": "address",
          "name": "",
          "type": "address"
        }
      ],
      "stateMutability": "view",
      "type": "function"
    },
    {
      "inputs": [],
      "name": "owner",
      "outputs": [
        {
          "internalType": "address",
          "name": "",
          "type": "address"
        }
      ],
      "stateMutability": "view",
      "type": "function"
    },
    {
      "inputs": [],
      "name": "renounceOwnership",
      "outputs": [],
      "stateMutability": "nonpayable",
      "type": "function"
    },
    {
      "inputs": [
        {
          "internalType": "address",
          "name": "newOwner",
          "type": "address"
        }
      ],
      "name": "transferOwnership",
      "outputs": [],
      "stateMutability": "nonpayable",
      "type": "function"
    },
    {
      "inputs": [
        {
          "internalType": "address",
          "name": "_libraryAddress",
          "type": "address"
        }
      ],
      "name": "setLibraryAddress",
      "outputs": [],
      "stateMutability": "nonpayable",
      "type": "function"
    },
    {
      "inputs": [
        {
          "internalType": "string",
          "name": "brand",
          "type": "string"
        },
        {
          "internalType": "string",
          "name": "colour",
          "type": "string"
        }
      ],
      "name": "createCar",
      "outputs": [],
      "stateMutability": "nonpayable",
      "type": "function"
    },
    {
      "inputs": [
        {
          "internalType": "address",
          "name": "_addr",
          "type": "address"
        },
        {
          "components": [
            {
              "internalType": "string",
              "name": "brand",
              "type": "string"
            },
            {
              "internalType": "string",
              "name": "colour",
              "type": "string"
            }
          ],
          "internalType": "struct CarFactory.carInfo",
          "name": "car_info",
          "type": "tuple"
        }
      ],
      "name": "addCarInfo",
      "outputs": [],
      "stateMutability": "nonpayable",
      "type": "function"
    },
    {
      "inputs": [
        {
          "internalType": "address",
          "name": "_addr",
          "type": "address"
        }
      ],
      "name": "getCarInfo",
      "outputs": [
        {
          "components": [
            {
              "internalType": "string",
              "name": "brand",
              "type": "string"
            },
            {
              "internalType": "string",
              "name": "colour",
              "type": "string"
            }
          ],
          "internalType": "struct CarFactory.carInfo",
          "name": "",
          "type": "tuple"
        }
      ],
      "stateMutability": "view",
      "type": "function"
    }
  ],
  "bytecode": "0x60806040526040518060a001604052806040518060400160405280600581526020017f726f73736f00000000000000000000000000000000000000000000000000000081525081526020016040518060400160405280600681526020017f6769616c6c6f000000000000000000000000000000000000000000000000000081525081526020016040518060400160405280600381526020017f626c75000000000000000000000000000000000000000000000000000000000081525081526020016040518060400160405280600481526020017f6e65726f0000000000000000000000000000000000000000000000000000000081525081526020016040518060400160405280600681526020017f6269616e636f000000000000000000000000000000000000000000000000000081525081525060019060056200014692919062000340565b5060405180604001604052806040518060400160405280600781526020017f666572726172690000000000000000000000000000000000000000000000000081525081526020016040518060400160405280600b81526020017f6c616d626f726768696e690000000000000000000000000000000000000000008152508152506002906002620001d8929190620003a0565b50348015620001e657600080fd5b5060405162001f4438038062001f4483398181016040528101906200020c9190620004f7565b6200022c620002206200027460201b60201c565b6200027c60201b60201c565b80600360006101000a81548173ffffffffffffffffffffffffffffffffffffffff021916908373ffffffffffffffffffffffffffffffffffffffff160217905550506200088a565b600033905090565b60008060009054906101000a900473ffffffffffffffffffffffffffffffffffffffff169050816000806101000a81548173ffffffffffffffffffffffffffffffffffffffff021916908373ffffffffffffffffffffffffffffffffffffffff1602179055508173ffffffffffffffffffffffffffffffffffffffff168173ffffffffffffffffffffffffffffffffffffffff167f8be0079c531659141344cd1fd0a4f28419497f9722a3daafe3b4186f6b6457e060405160405180910390a35050565b8280548282559060005260206000209081019282156200038d579160200282015b828111156200038c5782518290816200037b9190620007a3565b509160200191906001019062000361565b5b5090506200039c919062000400565b5090565b828054828255906000526020600020908101928215620003ed579160200282015b82811115620003ec578251829081620003db9190620007a3565b5091602001919060010190620003c1565b5b509050620003fc919062000400565b5090565b5b808211156200042457600081816200041a919062000428565b5060010162000401565b5090565b508054620004369062000592565b6000825580601f106200044a57506200046b565b601f0160209004906000526020600020908101906200046a91906200046e565b5b50565b5b80821115620004895760008160009055506001016200046f565b5090565b600080fd5b600073ffffffffffffffffffffffffffffffffffffffff82169050919050565b6000620004bf8262000492565b9050919050565b620004d181620004b2565b8114620004dd57600080fd5b50565b600081519050620004f181620004c6565b92915050565b60006020828403121562000510576200050f6200048d565b5b60006200052084828501620004e0565b91505092915050565b600081519050919050565b7f4e487b7100000000000000000000000000000000000000000000000000000000600052604160045260246000fd5b7f4e487b7100000000000000000000000000000000000000000000000000000000600052602260045260246000fd5b60006002820490506001821680620005ab57607f821691505b602082108103620005c157620005c062000563565b5b50919050565b60008190508160005260206000209050919050565b60006020601f8301049050919050565b600082821b905092915050565b6000600883026200062b7fffffffffffffffffffffffffffffffffffffffffffffffffffffffffffffffff82620005ec565b620006378683620005ec565b95508019841693508086168417925050509392505050565b6000819050919050565b6000819050919050565b6000620006846200067e62000678846200064f565b62000659565b6200064f565b9050919050565b6000819050919050565b620006a08362000663565b620006b8620006af826200068b565b848454620005f9565b825550505050565b600090565b620006cf620006c0565b620006dc81848462000695565b505050565b5b818110156200070457620006f8600082620006c5565b600181019050620006e2565b5050565b601f82111562000753576200071d81620005c7565b6200072884620005dc565b8101602085101562000738578190505b620007506200074785620005dc565b830182620006e1565b50505b505050565b600082821c905092915050565b6000620007786000198460080262000758565b1980831691505092915050565b600062000793838362000765565b9150826002028217905092915050565b620007ae8262000529565b67ffffffffffffffff811115620007ca57620007c962000534565b5b620007d6825462000592565b620007e382828562000708565b600060209050601f8311600181146200081b576000841562000806578287015190505b62000812858262000785565b86555062000882565b601f1984166200082b86620005c7565b60005b8281101562000855578489015182556001820191506020850194506020810190506200082e565b8683101562000875578489015162000871601f89168262000765565b8355505b6001600288020188555050505b505050505050565b6116aa806200089a6000396000f3fe608060405234801561001057600080fd5b50600436106100935760003560e01c80638da5cb5b116100665780638da5cb5b1461010b578063b816f51314610129578063c1588e8014610147578063eeb3470214610177578063f2fde38b1461019357610093565b806329fc7484146100985780633de4de8f146100c95780634863ba17146100e5578063715018a614610101575b600080fd5b6100b260048036038101906100ad9190610c08565b6101af565b6040516100c0929190610cc5565b60405180910390f35b6100e360048036038101906100de9190610e31565b6102e3565b005b6100ff60048036038101906100fa9190610c08565b610469565b005b6101096104b5565b005b6101136104c9565b6040516101209190610eb8565b60405180910390f35b6101316104f2565b60405161013e9190610eb8565b60405180910390f35b610161600480360381019061015c9190610c08565b610518565b60405161016e9190610f61565b60405180910390f35b610191600480360381019061018c9190611015565b610695565b005b6101ad60048036038101906101a89190610c08565b610708565b005b60046020528060005260406000206000915090508060000180546101d2906110a0565b80601f01602080910402602001604051908101604052809291908181526020018280546101fe906110a0565b801561024b5780601f106102205761010080835404028352916020019161024b565b820191906000526020600020905b81548152906001019060200180831161022e57829003601f168201915b505050505090806001018054610260906110a0565b80601f016020809104026020016040519081016040528092919081815260200182805461028c906110a0565b80156102d95780601f106102ae576101008083540402835291602001916102d9565b820191906000526020600020905b8154815290600101906020018083116102bc57829003601f168201915b5050505050905082565b6102ec8261078b565b61032b576040517f08c379a000000000000000000000000000000000000000000000000000000000815260040161032290611143565b60405180910390fd5b6103348161087d565b610373576040517f08c379a000000000000000000000000000000000000000000000000000000000815260040161036a906111d5565b60405180910390fd5b60006103a0600360009054906101000a900473ffffffffffffffffffffffffffffffffffffffff1661096f565b90508073ffffffffffffffffffffffffffffffffffffffff16637029144c84846040518363ffffffff1660e01b81526004016103dd929190610cc5565b600060405180830381600087803b1580156103f757600080fd5b505af115801561040b573d6000803e3d6000fd5b5050505061042d81604051806040016040528086815260200185815250610695565b7f7229b1b7055c9c10acce8c0071ed53a33fe632b187ecf1415c2f9dca00346e9d8160405161045c9190610eb8565b60405180910390a1505050565b6104716109d9565b80600360006101000a81548173ffffffffffffffffffffffffffffffffffffffff021916908373ffffffffffffffffffffffffffffffffffffffff16021790555050565b6104bd6109d9565b6104c76000610a57565b565b60008060009054906101000a900473ffffffffffffffffffffffffffffffffffffffff16905090565b600360009054906101000a900473ffffffffffffffffffffffffffffffffffffffff1681565b610520610b7c565b600460008373ffffffffffffffffffffffffffffffffffffffff1673ffffffffffffffffffffffffffffffffffffffff16815260200190815260200160002060405180604001604052908160008201805461057a906110a0565b80601f01602080910402602001604051908101604052809291908181526020018280546105a6906110a0565b80156105f35780601f106105c8576101008083540402835291602001916105f3565b820191906000526020600020905b8154815290600101906020018083116105d657829003601f168201915b5050505050815260200160018201805461060c906110a0565b80601f0160208091040260200160405190810160405280929190818152602001828054610638906110a0565b80156106855780601f1061065a57610100808354040283529160200191610685565b820191906000526020600020905b81548152906001019060200180831161066857829003601f168201915b5050505050815250509050919050565b80600460008473ffffffffffffffffffffffffffffffffffffffff1673ffffffffffffffffffffffffffffffffffffffff16815260200190815260200160002060008201518160000190816106ea91906113ab565b50602082015181600101908161070091906113ab565b509050505050565b6107106109d9565b600073ffffffffffffffffffffffffffffffffffffffff168173ffffffffffffffffffffffffffffffffffffffff160361077f576040517f08c379a0000000000000000000000000000000000000000000000000000000008152600401610776906114ef565b60405180910390fd5b61078881610a57565b50565b600080600090505b60028054905081101561087257610850600282815481106107b7576107b661150f565b5b9060005260206000200180546107cc906110a0565b80601f01602080910402602001604051908101604052809291908181526020018280546107f8906110a0565b80156108455780601f1061081a57610100808354040283529160200191610845565b820191906000526020600020905b81548152906001019060200180831161082857829003601f168201915b505050505084610b1b565b1561085f576001915050610878565b808061086a9061156d565b915050610793565b50600090505b919050565b600080600090505b60018054905081101561096457610942600182815481106108a9576108a861150f565b5b9060005260206000200180546108be906110a0565b80601f01602080910402602001604051908101604052809291908181526020018280546108ea906110a0565b80156109375780601f1061090c57610100808354040283529160200191610937565b820191906000526020600020905b81548152906001019060200180831161091a57829003601f168201915b505050505084610b1b565b1561095157600191505061096a565b808061095c9061156d565b915050610885565b50600090505b919050565b6000808260601b90506040517f3d602d80600a3d3981f3363d3d373d3d3d363d7300000000000000000000000081528160148201527f5af43d82803e903d91602b57fd5bf3000000000000000000000000000000000060288201526037816000f092505050919050565b6109e1610b74565b73ffffffffffffffffffffffffffffffffffffffff166109ff6104c9565b73ffffffffffffffffffffffffffffffffffffffff1614610a55576040517f08c379a0000000000000000000000000000000000000000000000000000000008152600401610a4c90611601565b60405180910390fd5b565b60008060009054906101000a900473ffffffffffffffffffffffffffffffffffffffff169050816000806101000a81548173ffffffffffffffffffffffffffffffffffffffff021916908373ffffffffffffffffffffffffffffffffffffffff1602179055508173ffffffffffffffffffffffffffffffffffffffff168173ffffffffffffffffffffffffffffffffffffffff167f8be0079c531659141344cd1fd0a4f28419497f9722a3daafe3b4186f6b6457e060405160405180910390a35050565b600081604051602001610b2e919061165d565b6040516020818303038152906040528051906020012083604051602001610b55919061165d565b6040516020818303038152906040528051906020012014905092915050565b600033905090565b604051806040016040528060608152602001606081525090565b6000604051905090565b600080fd5b600080fd5b600073ffffffffffffffffffffffffffffffffffffffff82169050919050565b6000610bd582610baa565b9050919050565b610be581610bca565b8114610bf057600080fd5b50565b600081359050610c0281610bdc565b92915050565b600060208284031215610c1e57610c1d610ba0565b5b6000610c2c84828501610bf3565b91505092915050565b600081519050919050565b600082825260208201905092915050565b60005b83811015610c6f578082015181840152602081019050610c54565b60008484015250505050565b6000601f19601f8301169050919050565b6000610c9782610c35565b610ca18185610c40565b9350610cb1818560208601610c51565b610cba81610c7b565b840191505092915050565b60006040820190508181036000830152610cdf8185610c8c565b90508181036020830152610cf38184610c8c565b90509392505050565b600080fd5b600080fd5b7f4e487b7100000000000000000000000000000000000000000000000000000000600052604160045260246000fd5b610d3e82610c7b565b810181811067ffffffffffffffff82111715610d5d57610d5c610d06565b5b80604052505050565b6000610d70610b96565b9050610d7c8282610d35565b919050565b600067ffffffffffffffff821115610d9c57610d9b610d06565b5b610da582610c7b565b9050602081019050919050565b82818337600083830152505050565b6000610dd4610dcf84610d81565b610d66565b905082815260208101848484011115610df057610def610d01565b5b610dfb848285610db2565b509392505050565b600082601f830112610e1857610e17610cfc565b5b8135610e28848260208601610dc1565b91505092915050565b60008060408385031215610e4857610e47610ba0565b5b600083013567ffffffffffffffff811115610e6657610e65610ba5565b5b610e7285828601610e03565b925050602083013567ffffffffffffffff811115610e9357610e92610ba5565b5b610e9f85828601610e03565b9150509250929050565b610eb281610bca565b82525050565b6000602082019050610ecd6000830184610ea9565b92915050565b600082825260208201905092915050565b6000610eef82610c35565b610ef98185610ed3565b9350610f09818560208601610c51565b610f1281610c7b565b840191505092915050565b60006040830160008301518482036000860152610f3a8282610ee4565b91505060208301518482036020860152610f548282610ee4565b9150508091505092915050565b60006020820190508181036000830152610f7b8184610f1d565b905092915050565b600080fd5b600080fd5b600060408284031215610fa357610fa2610f83565b5b610fad6040610d66565b9050600082013567ffffffffffffffff811115610fcd57610fcc610f88565b5b610fd984828501610e03565b600083015250602082013567ffffffffffffffff811115610ffd57610ffc610f88565b5b61100984828501610e03565b60208301525092915050565b6000806040838503121561102c5761102b610ba0565b5b600061103a85828601610bf3565b925050602083013567ffffffffffffffff81111561105b5761105a610ba5565b5b61106785828601610f8d565b9150509250929050565b7f4e487b7100000000000000000000000000000000000000000000000000000000600052602260045260246000fd5b600060028204905060018216806110b857607f821691505b6020821081036110cb576110ca611071565b5b50919050565b7f4272616e64206e6f7420617661696c61626c652c207069636b20616e6f74686560008201527f7200000000000000000000000000000000000000000000000000000000000000602082015250565b600061112d602183610c40565b9150611138826110d1565b604082019050919050565b6000602082019050818103600083015261115c81611120565b9050919050565b7f436f6c6f7572206e6f7420617661696c61626c652c207069636b20616e6f746860008201527f6572000000000000000000000000000000000000000000000000000000000000602082015250565b60006111bf602283610c40565b91506111ca82611163565b604082019050919050565b600060208201905081810360008301526111ee816111b2565b9050919050565b60008190508160005260206000209050919050565b60006020601f8301049050919050565b600082821b905092915050565b6000600883026112577fffffffffffffffffffffffffffffffffffffffffffffffffffffffffffffffff8261121a565b611261868361121a565b95508019841693508086168417925050509392505050565b6000819050919050565b6000819050919050565b60006112a86112a361129e84611279565b611283565b611279565b9050919050565b6000819050919050565b6112c28361128d565b6112d66112ce826112af565b848454611227565b825550505050565b600090565b6112eb6112de565b6112f68184846112b9565b505050565b5b8181101561131a5761130f6000826112e3565b6001810190506112fc565b5050565b601f82111561135f57611330816111f5565b6113398461120a565b81016020851015611348578190505b61135c6113548561120a565b8301826112fb565b50505b505050565b600082821c905092915050565b600061138260001984600802611364565b1980831691505092915050565b600061139b8383611371565b9150826002028217905092915050565b6113b482610c35565b67ffffffffffffffff8111156113cd576113cc610d06565b5b6113d782546110a0565b6113e282828561131e565b600060209050601f8311600181146114155760008415611403578287015190505b61140d858261138f565b865550611475565b601f198416611423866111f5565b60005b8281101561144b57848901518255600182019150602085019450602081019050611426565b868310156114685784890151611464601f891682611371565b8355505b6001600288020188555050505b505050505050565b7f4f776e61626c653a206e6577206f776e657220697320746865207a65726f206160008201527f6464726573730000000000000000000000000000000000000000000000000000602082015250565b60006114d9602683610c40565b91506114e48261147d565b604082019050919050565b60006020820190508181036000830152611508816114cc565b9050919050565b7f4e487b7100000000000000000000000000000000000000000000000000000000600052603260045260246000fd5b7f4e487b7100000000000000000000000000000000000000000000000000000000600052601160045260246000fd5b600061157882611279565b91507fffffffffffffffffffffffffffffffffffffffffffffffffffffffffffffffff82036115aa576115a961153e565b5b600182019050919050565b7f4f776e61626c653a2063616c6c6572206973206e6f7420746865206f776e6572600082015250565b60006115eb602083610c40565b91506115f6826115b5565b602082019050919050565b6000602082019050818103600083015261161a816115de565b9050919050565b600081905092915050565b600061163782610c35565b6116418185611621565b9350611651818560208601610c51565b80840191505092915050565b6000611669828461162c565b91508190509291505056fea26469706673582212203741a304a55146a9d69a612039e9356f084cef7d9dd75fd06ab820fc3247d60864736f6c63430008130033",
  "immutableReferences": {},
  "source": "// SPDX-License-Identifier: UNLICENSED\npragma solidity ^0.8.0;\n\nimport \"./Car.sol\";\nimport \"../node_modules/@optionality.io/clone-factory/contracts/CloneFactory.sol\";\nimport \"../node_modules/@openzeppelin/contracts/access/Ownable.sol\";\n\ncontract CarFactory is Ownable, CloneFactory {\n    string[] private colours = [\"rosso\", \"giallo\", \"blu\", \"nero\", \"bianco\"];\n    string[] private brands = [\"ferrari\", \"lamborghini\"];\n    address public libraryAddress;\n\n    struct carInfo {\n        string brand;\n        string colour;\n    }\n\n    mapping(address => carInfo) public carInfos;\n\n    event CarCreated(address newCarAddress);\n\n    constructor(address _libraryAddress){\n        libraryAddress = _libraryAddress;\n    }\n\n    function setLibraryAddress(address _libraryAddress) public onlyOwner {\n        libraryAddress = _libraryAddress;\n    }\n\n    function createCar(string memory brand, string memory colour) external {\n        require(checkBrand(brand), \"Brand not available, pick another\");\n        require(checkColour(colour), \"Colour not available, pick another\");\n\n        address car = createClone(libraryAddress);\n        Car(car).init(brand, colour);\n        addCarInfo(car, carInfo(brand, colour));\n        emit CarCreated(car);\n    }\n\n    function checkColour(string memory colour) private view returns(bool) {\n        for(uint i = 0; i < colours.length; i++) {\n            if (compareStrings(colours[i], colour)) {\n                return true;\n            }\n        }\n        return false;\n    }\n\n    function checkBrand(string memory brand) private view returns(bool) {\n        for(uint i = 0; i < brands.length; i++) {\n            if (compareStrings(brands[i], brand)) {\n                return true;\n            }\n        }\n        return false;\n    }\n\n    function compareStrings(string memory a, string memory b) private pure returns(bool) {\n        return (keccak256(abi.encodePacked((a))) == keccak256(abi.encodePacked((b))));\n    }\n\n    function addCarInfo(address _addr, carInfo memory car_info) public {\n        carInfos[_addr] = car_info;\n    }\n\n    function getCarInfo(address _addr) public view returns(carInfo memory) {\n        return carInfos[_addr];\n    }\n}",
  "sourcePath": "/home/liam/Liam/Uni/Magistrale/Blockchain/traceability-DHT/contracts/CarFactory.sol",
  "compiler": {
    "name": "solc",
    "version": "0.8.19+commit.7dd6d404.Emscripten.clang"
  },
  "schemaVersion": "3.4.13",
  "updatedAt": "2023-05-22T17:15:15.228Z",
  "devdoc": {
    "kind": "dev",
    "methods": {
      "owner()": {
        "details": "Returns the address of the current owner."
      },
      "renounceOwnership()": {
        "details": "Leaves the contract without owner. It will not be possible to call `onlyOwner` functions anymore. Can only be called by the current owner. NOTE: Renouncing ownership will leave the contract without an owner, thereby removing any functionality that is only available to the owner."
      },
      "transferOwnership(address)": {
        "details": "Transfers ownership of the contract to a new account (`newOwner`). Can only be called by the current owner."
      }
    },
    "version": 1
  },
  "userdoc": {
    "kind": "user",
    "methods": {},
    "version": 1
  }
}