{
  "contractName": "CarFactory",
  "abi": [
    {
      "inputs": [
        {
          "internalType": "address",
          "name": "_masterContract",
          "type": "address"
        }
      ],
      "stateMutability": "nonpayable",
      "type": "constructor"
    },
    {
      "inputs": [
        {
          "internalType": "uint256",
          "name": "",
          "type": "uint256"
        }
      ],
      "name": "cars",
      "outputs": [
        {
          "internalType": "contract Car",
          "name": "",
          "type": "address"
        }
      ],
      "stateMutability": "view",
      "type": "function"
    },
    {
      "inputs": [
        {
          "internalType": "string",
          "name": "brand",
          "type": "string"
        },
        {
          "internalType": "string",
          "name": "colour",
          "type": "string"
        }
      ],
      "name": "createCar",
      "outputs": [],
      "stateMutability": "nonpayable",
      "type": "function"
    },
    {
      "inputs": [],
      "name": "getCars",
      "outputs": [
        {
          "internalType": "contract Car[]",
          "name": "",
          "type": "address[]"
        }
      ],
      "stateMutability": "view",
      "type": "function"
    }
  ],
  "bytecode": "0x60806040526040518060a001604052806040518060400160405280600581526020017f726f73736f00000000000000000000000000000000000000000000000000000081525081526020016040518060400160405280600681526020017f6769616c6c6f000000000000000000000000000000000000000000000000000081525081526020016040518060400160405280600381526020017f626c75000000000000000000000000000000000000000000000000000000000081525081526020016040518060400160405280600481526020017f6e65726f0000000000000000000000000000000000000000000000000000000081525081526020016040518060400160405280600681526020017f6269616e636f000000000000000000000000000000000000000000000000000081525081525060019060056200014692919062000254565b5060405180604001604052806040518060400160405280600781526020017f666572726172690000000000000000000000000000000000000000000000000081525081526020016040518060400160405280600b81526020017f6c616d626f726768696e690000000000000000000000000000000000000000008152508152506002906002620001d8929190620002b4565b50348015620001e657600080fd5b506040516200147e3803806200147e83398181016040528101906200020c91906200040b565b80600360006101000a81548173ffffffffffffffffffffffffffffffffffffffff021916908373ffffffffffffffffffffffffffffffffffffffff160217905550506200079e565b828054828255906000526020600020908101928215620002a1579160200282015b82811115620002a05782518290816200028f9190620006b7565b509160200191906001019062000275565b5b509050620002b0919062000314565b5090565b82805482825590600052602060002090810192821562000301579160200282015b8281111562000300578251829081620002ef9190620006b7565b5091602001919060010190620002d5565b5b50905062000310919062000314565b5090565b5b808211156200033857600081816200032e91906200033c565b5060010162000315565b5090565b5080546200034a90620004a6565b6000825580601f106200035e57506200037f565b601f0160209004906000526020600020908101906200037e919062000382565b5b50565b5b808211156200039d57600081600090555060010162000383565b5090565b600080fd5b600073ffffffffffffffffffffffffffffffffffffffff82169050919050565b6000620003d382620003a6565b9050919050565b620003e581620003c6565b8114620003f157600080fd5b50565b6000815190506200040581620003da565b92915050565b600060208284031215620004245762000423620003a1565b5b60006200043484828501620003f4565b91505092915050565b600081519050919050565b7f4e487b7100000000000000000000000000000000000000000000000000000000600052604160045260246000fd5b7f4e487b7100000000000000000000000000000000000000000000000000000000600052602260045260246000fd5b60006002820490506001821680620004bf57607f821691505b602082108103620004d557620004d462000477565b5b50919050565b60008190508160005260206000209050919050565b60006020601f8301049050919050565b600082821b905092915050565b6000600883026200053f7fffffffffffffffffffffffffffffffffffffffffffffffffffffffffffffffff8262000500565b6200054b868362000500565b95508019841693508086168417925050509392505050565b6000819050919050565b6000819050919050565b600062000598620005926200058c8462000563565b6200056d565b62000563565b9050919050565b6000819050919050565b620005b48362000577565b620005cc620005c3826200059f565b8484546200050d565b825550505050565b600090565b620005e3620005d4565b620005f0818484620005a9565b505050565b5b8181101562000618576200060c600082620005d9565b600181019050620005f6565b5050565b601f82111562000667576200063181620004db565b6200063c84620004f0565b810160208510156200064c578190505b620006646200065b85620004f0565b830182620005f5565b50505b505050565b600082821c905092915050565b60006200068c600019846008026200066c565b1980831691505092915050565b6000620006a7838362000679565b9150826002028217905092915050565b620006c2826200043d565b67ffffffffffffffff811115620006de57620006dd62000448565b5b620006ea8254620004a6565b620006f78282856200061c565b600060209050601f8311600181146200072f57600084156200071a578287015190505b62000726858262000699565b86555062000796565b601f1984166200073f86620004db565b60005b82811015620007695784890151825560018201915060208501945060208101905062000742565b8683101562000789578489015162000785601f89168262000679565b8355505b6001600288020188555050505b505050505050565b610cd080620007ae6000396000f3fe608060405234801561001057600080fd5b50600436106100415760003560e01c806317c39286146100465780633de4de8f14610064578063f7746e3614610080575b600080fd5b61004e6100b0565b60405161005b91906106e6565b60405180910390f35b61007e60048036038101906100799190610862565b61013e565b005b61009a60048036038101906100959190610910565b6102d2565b6040516100a7919061094c565b60405180910390f35b6060600080548060200260200160405190810160405280929190818152602001828054801561013457602002820191906000526020600020905b8160009054906101000a900473ffffffffffffffffffffffffffffffffffffffff1673ffffffffffffffffffffffffffffffffffffffff16815260200190600101908083116100ea575b5050505050905090565b61014782610311565b610186576040517f08c379a000000000000000000000000000000000000000000000000000000000815260040161017d906109ea565b60405180910390fd5b61018f81610403565b6101ce576040517f08c379a00000000000000000000000000000000000000000000000000000000081526004016101c590610a7c565b60405180910390fd5b60006101fb600360009054906101000a900473ffffffffffffffffffffffffffffffffffffffff166104f5565b90508073ffffffffffffffffffffffffffffffffffffffff16637029144c84846040518363ffffffff1660e01b8152600401610238929190610b0a565b600060405180830381600087803b15801561025257600080fd5b505af1158015610266573d6000803e3d6000fd5b505050506000819080600181540180825580915050600190039060005260206000200160009091909190916101000a81548173ffffffffffffffffffffffffffffffffffffffff021916908373ffffffffffffffffffffffffffffffffffffffff160217905550505050565b600081815481106102e257600080fd5b906000526020600020016000915054906101000a900473ffffffffffffffffffffffffffffffffffffffff1681565b600080600090505b6002805490508110156103f8576103d66002828154811061033d5761033c610b41565b5b90600052602060002001805461035290610b9f565b80601f016020809104026020016040519081016040528092919081815260200182805461037e90610b9f565b80156103cb5780601f106103a0576101008083540402835291602001916103cb565b820191906000526020600020905b8154815290600101906020018083116103ae57829003601f168201915b50505050508461055f565b156103e55760019150506103fe565b80806103f090610bff565b915050610319565b50600090505b919050565b600080600090505b6001805490508110156104ea576104c86001828154811061042f5761042e610b41565b5b90600052602060002001805461044490610b9f565b80601f016020809104026020016040519081016040528092919081815260200182805461047090610b9f565b80156104bd5780601f10610492576101008083540402835291602001916104bd565b820191906000526020600020905b8154815290600101906020018083116104a057829003601f168201915b50505050508461055f565b156104d75760019150506104f0565b80806104e290610bff565b91505061040b565b50600090505b919050565b6000808260601b90506040517f3d602d80600a3d3981f3363d3d373d3d3d363d7300000000000000000000000081528160148201527f5af43d82803e903d91602b57fd5bf3000000000000000000000000000000000060288201526037816000f092505050919050565b6000816040516020016105729190610c83565b60405160208183030381529060405280519060200120836040516020016105999190610c83565b6040516020818303038152906040528051906020012014905092915050565b600081519050919050565b600082825260208201905092915050565b6000819050602082019050919050565b600073ffffffffffffffffffffffffffffffffffffffff82169050919050565b6000819050919050565b600061062961062461061f846105e4565b610604565b6105e4565b9050919050565b600061063b8261060e565b9050919050565b600061064d82610630565b9050919050565b61065d81610642565b82525050565b600061066f8383610654565b60208301905092915050565b6000602082019050919050565b6000610693826105b8565b61069d81856105c3565b93506106a8836105d4565b8060005b838110156106d95781516106c08882610663565b97506106cb8361067b565b9250506001810190506106ac565b5085935050505092915050565b600060208201905081810360008301526107008184610688565b905092915050565b6000604051905090565b600080fd5b600080fd5b600080fd5b600080fd5b6000601f19601f8301169050919050565b7f4e487b7100000000000000000000000000000000000000000000000000000000600052604160045260246000fd5b61076f82610726565b810181811067ffffffffffffffff8211171561078e5761078d610737565b5b80604052505050565b60006107a1610708565b90506107ad8282610766565b919050565b600067ffffffffffffffff8211156107cd576107cc610737565b5b6107d682610726565b9050602081019050919050565b82818337600083830152505050565b6000610805610800846107b2565b610797565b90508281526020810184848401111561082157610820610721565b5b61082c8482856107e3565b509392505050565b600082601f8301126108495761084861071c565b5b81356108598482602086016107f2565b91505092915050565b6000806040838503121561087957610878610712565b5b600083013567ffffffffffffffff81111561089757610896610717565b5b6108a385828601610834565b925050602083013567ffffffffffffffff8111156108c4576108c3610717565b5b6108d085828601610834565b9150509250929050565b6000819050919050565b6108ed816108da565b81146108f857600080fd5b50565b60008135905061090a816108e4565b92915050565b60006020828403121561092657610925610712565b5b6000610934848285016108fb565b91505092915050565b61094681610642565b82525050565b6000602082019050610961600083018461093d565b92915050565b600082825260208201905092915050565b7f4272616e64206e6f7420617661696c61626c652c207069636b20616e6f74686560008201527f7200000000000000000000000000000000000000000000000000000000000000602082015250565b60006109d4602183610967565b91506109df82610978565b604082019050919050565b60006020820190508181036000830152610a03816109c7565b9050919050565b7f436f6c6f7572206e6f7420617661696c61626c652c207069636b20616e6f746860008201527f6572000000000000000000000000000000000000000000000000000000000000602082015250565b6000610a66602283610967565b9150610a7182610a0a565b604082019050919050565b60006020820190508181036000830152610a9581610a59565b9050919050565b600081519050919050565b60005b83811015610ac5578082015181840152602081019050610aaa565b60008484015250505050565b6000610adc82610a9c565b610ae68185610967565b9350610af6818560208601610aa7565b610aff81610726565b840191505092915050565b60006040820190508181036000830152610b248185610ad1565b90508181036020830152610b388184610ad1565b90509392505050565b7f4e487b7100000000000000000000000000000000000000000000000000000000600052603260045260246000fd5b7f4e487b7100000000000000000000000000000000000000000000000000000000600052602260045260246000fd5b60006002820490506001821680610bb757607f821691505b602082108103610bca57610bc9610b70565b5b50919050565b7f4e487b7100000000000000000000000000000000000000000000000000000000600052601160045260246000fd5b6000610c0a826108da565b91507fffffffffffffffffffffffffffffffffffffffffffffffffffffffffffffffff8203610c3c57610c3b610bd0565b5b600182019050919050565b600081905092915050565b6000610c5d82610a9c565b610c678185610c47565b9350610c77818560208601610aa7565b80840191505092915050565b6000610c8f8284610c52565b91508190509291505056fea2646970667358221220b7f0dfa9ada4691151dda6a0a8e843f499d15b337ef63174d194b5ef37b3711964736f6c63430008130033",
  "immutableReferences": {},
  "source": "// SPDX-License-Identifier: UNLICENSED\npragma solidity ^0.8.0;\n\nimport \"./Car.sol\";\nimport \"./CloneFactory.sol\";\n\ncontract CarFactory is CloneFactory {\n    Car[] public cars;\n\n    string[] private colours = [\"rosso\", \"giallo\", \"blu\", \"nero\", \"bianco\"];\n    string[] private brands = [\"ferrari\", \"lamborghini\"];\n    address masterContract;\n\n    constructor(address _masterContract){\n        masterContract = _masterContract;\n    }\n\n    function createCar(string memory brand, string memory colour) external{\n\n        require(checkBrand(brand), \"Brand not available, pick another\");\n        require(checkColour(colour), \"Colour not available, pick another\");\n        Car car = Car(createClone(masterContract));\n        car.init(brand, colour);\n        cars.push(car);\n    }\n\n    function getCars() external view returns(Car[] memory){\n        return cars;\n    }\n\n    function checkColour(string memory colour) private view returns(bool) {\n        for(uint i = 0; i < colours.length; i++) {\n            if (compareStrings(colours[i], colour)) {\n                return true;\n            }\n        }\n        return false;\n    }\n\n    function checkBrand(string memory brand) private view returns(bool) {\n        for(uint i = 0; i < brands.length; i++) {\n            if (compareStrings(brands[i], brand)) {\n                return true;\n            }\n        }\n        return false;\n    }\n\n    function compareStrings(string memory a, string memory b) private pure returns(bool) {\n        return (keccak256(abi.encodePacked((a))) == keccak256(abi.encodePacked((b))));\n    }\n}",
  "sourcePath": "/home/liam/Liam/Uni/Magistrale/Blockchain/traceability-DHT/contracts/CarFactory.sol",
  "compiler": {
    "name": "solc",
    "version": "0.8.19+commit.7dd6d404.Emscripten.clang"
  },
  "schemaVersion": "3.4.13",
  "updatedAt": "2023-05-19T17:22:59.358Z",
  "devdoc": {
    "kind": "dev",
    "methods": {},
    "version": 1
  },
  "userdoc": {
    "kind": "user",
    "methods": {},
    "version": 1
  }
}