{
  "contractName": "SupplyChain",
  "abi": [
    {
      "anonymous": false,
      "inputs": [
        {
          "indexed": false,
          "internalType": "address",
          "name": "entityId",
          "type": "address"
        },
        {
          "indexed": false,
          "internalType": "string",
          "name": "entityRole",
          "type": "string"
        }
      ],
      "name": "AddEntity",
      "type": "event"
    },
    {
      "anonymous": false,
      "inputs": [
        {
          "indexed": false,
          "internalType": "uint256",
          "name": "id",
          "type": "uint256"
        },
        {
          "indexed": true,
          "internalType": "address",
          "name": "manufacturer",
          "type": "address"
        }
      ],
      "name": "AddVaccineBatch",
      "type": "event"
    },
    {
      "anonymous": false,
      "inputs": [
        {
          "indexed": true,
          "internalType": "address",
          "name": "issuer",
          "type": "address"
        },
        {
          "indexed": true,
          "internalType": "address",
          "name": "prover",
          "type": "address"
        },
        {
          "indexed": false,
          "internalType": "uint256",
          "name": "certificateId",
          "type": "uint256"
        }
      ],
      "name": "IssueCertificate",
      "type": "event"
    },
    {
      "inputs": [],
      "name": "MAX_CERTIFICATIONS",
      "outputs": [
        {
          "internalType": "uint256",
          "name": "",
          "type": "uint256"
        }
      ],
      "stateMutability": "view",
      "type": "function"
    },
    {
      "inputs": [
        {
          "internalType": "uint256",
          "name": "",
          "type": "uint256"
        }
      ],
      "name": "certificateIds",
      "outputs": [
        {
          "internalType": "uint256",
          "name": "",
          "type": "uint256"
        }
      ],
      "stateMutability": "view",
      "type": "function"
    },
    {
      "inputs": [
        {
          "internalType": "uint256",
          "name": "",
          "type": "uint256"
        }
      ],
      "name": "certificates",
      "outputs": [
        {
          "internalType": "uint256",
          "name": "id",
          "type": "uint256"
        },
        {
          "components": [
            {
              "internalType": "address",
              "name": "id",
              "type": "address"
            },
            {
              "internalType": "enum SupplyChain.Role",
              "name": "role",
              "type": "uint8"
            },
            {
              "internalType": "uint256[]",
              "name": "certificateIds",
              "type": "uint256[]"
            }
          ],
          "internalType": "struct SupplyChain.Entity",
          "name": "issuer",
          "type": "tuple"
        },
        {
          "components": [
            {
              "internalType": "address",
              "name": "id",
              "type": "address"
            },
            {
              "internalType": "enum SupplyChain.Role",
              "name": "role",
              "type": "uint8"
            },
            {
              "internalType": "uint256[]",
              "name": "certificateIds",
              "type": "uint256[]"
            }
          ],
          "internalType": "struct SupplyChain.Entity",
          "name": "prover",
          "type": "tuple"
        },
        {
          "internalType": "bytes",
          "name": "signature",
          "type": "bytes"
        },
        {
          "internalType": "enum SupplyChain.CertificateStatus",
          "name": "status",
          "type": "uint8"
        }
      ],
      "stateMutability": "view",
      "type": "function"
    },
    {
      "inputs": [
        {
          "internalType": "address",
          "name": "",
          "type": "address"
        }
      ],
      "name": "entities",
      "outputs": [
        {
          "internalType": "address",
          "name": "id",
          "type": "address"
        },
        {
          "internalType": "enum SupplyChain.Role",
          "name": "role",
          "type": "uint8"
        }
      ],
      "stateMutability": "view",
      "type": "function"
    },
    {
      "inputs": [
        {
          "internalType": "uint256",
          "name": "",
          "type": "uint256"
        }
      ],
      "name": "vaccineBatchIds",
      "outputs": [
        {
          "internalType": "uint256",
          "name": "",
          "type": "uint256"
        }
      ],
      "stateMutability": "view",
      "type": "function"
    },
    {
      "inputs": [
        {
          "internalType": "uint256",
          "name": "",
          "type": "uint256"
        }
      ],
      "name": "vaccineBatches",
      "outputs": [
        {
          "internalType": "uint256",
          "name": "id",
          "type": "uint256"
        },
        {
          "internalType": "string",
          "name": "brand",
          "type": "string"
        },
        {
          "internalType": "address",
          "name": "manufacturer",
          "type": "address"
        }
      ],
      "stateMutability": "view",
      "type": "function"
    },
    {
      "inputs": [
        {
          "internalType": "address",
          "name": "_id",
          "type": "address"
        },
        {
          "internalType": "string",
          "name": "_role",
          "type": "string"
        }
      ],
      "name": "addEntity",
      "outputs": [],
      "stateMutability": "nonpayable",
      "type": "function"
    },
    {
      "inputs": [
        {
          "internalType": "string",
          "name": "brand",
          "type": "string"
        },
        {
          "internalType": "address",
          "name": "manufacturer",
          "type": "address"
        }
      ],
      "name": "addVaccineBatch",
      "outputs": [
        {
          "internalType": "uint256",
          "name": "",
          "type": "uint256"
        }
      ],
      "stateMutability": "nonpayable",
      "type": "function"
    },
    {
      "inputs": [
        {
          "internalType": "address",
          "name": "_issuer",
          "type": "address"
        },
        {
          "internalType": "address",
          "name": "_prover",
          "type": "address"
        },
        {
          "internalType": "string",
          "name": "_status",
          "type": "string"
        },
        {
          "internalType": "uint256",
          "name": "vaccineBatchId",
          "type": "uint256"
        },
        {
          "internalType": "bytes",
          "name": "signature",
          "type": "bytes"
        }
      ],
      "name": "issueCertificate",
      "outputs": [
        {
          "internalType": "uint256",
          "name": "",
          "type": "uint256"
        }
      ],
      "stateMutability": "nonpayable",
      "type": "function"
    },
    {
      "inputs": [
        {
          "internalType": "bytes32",
          "name": "message",
          "type": "bytes32"
        },
        {
          "internalType": "uint256",
          "name": "id",
          "type": "uint256"
        },
        {
          "internalType": "address",
          "name": "issuer",
          "type": "address"
        }
      ],
      "name": "isMatchingSignature",
      "outputs": [
        {
          "internalType": "bool",
          "name": "",
          "type": "bool"
        }
      ],
      "stateMutability": "view",
      "type": "function"
    }
  ],
  "bytecode": "0x608060405234801561001057600080fd5b50612a65806100206000396000f3fe608060405234801561001057600080fd5b506004361061009e5760003560e01c8063663b3e2211610066578063663b3e22146101845780637aefaf39146101b8578063b5bad46d146101e8578063c8d8184b14610204578063fc79b0a9146102345761009e565b806303a692b9146100a35780630f9c774d146100d55780631d8ee48a1461010557806345194c07146101365780634851a01d14610166575b600080fd5b6100bd60048036038101906100b891906117b3565b610264565b6040516100cc939291906118c0565b60405180910390f35b6100ef60048036038101906100ea91906117b3565b610336565b6040516100fc91906118fe565b60405180910390f35b61011f600480360381019061011a9190611945565b61035a565b60405161012d9291906119e9565b60405180910390f35b610150600480360381019061014b9190611a48565b6103ab565b60405161015d9190611ab6565b60405180910390f35b61016e610733565b60405161017b91906118fe565b60405180910390f35b61019e600480360381019061019991906117b3565b610738565b6040516101af959493929190611c9a565b60405180910390f35b6101d260048036038101906101cd91906117b3565b6109e9565b6040516101df91906118fe565b60405180910390f35b61020260048036038101906101fd9190611e37565b610a0d565b005b61021e60048036038101906102199190611f34565b610bca565b60405161022b91906118fe565b60405180910390f35b61024e60048036038101906102499190611fe7565b611171565b60405161025b91906118fe565b60405180910390f35b600260205280600052604060002060009150905080600001549080600101805461028d90612072565b80601f01602080910402602001604051908101604052809291908181526020018280546102b990612072565b80156103065780601f106102db57610100808354040283529160200191610306565b820191906000526020600020905b8154815290600101906020018083116102e957829003601f168201915b5050505050908060020160009054906101000a900473ffffffffffffffffffffffffffffffffffffffff16905083565b6000818154811061034657600080fd5b906000526020600020016000915090505481565b60046020528060005260406000206000915090508060000160009054906101000a900473ffffffffffffffffffffffffffffffffffffffff16908060000160149054906101000a900460ff16905082565b600080600360008581526020019081526020016000206040518060a001604052908160008201548152602001600182016040518060600160405290816000820160009054906101000a900473ffffffffffffffffffffffffffffffffffffffff1673ffffffffffffffffffffffffffffffffffffffff1673ffffffffffffffffffffffffffffffffffffffff1681526020016000820160149054906101000a900460ff16600281111561046157610460611972565b5b600281111561047357610472611972565b5b8152602001600182018054806020026020016040519081016040528092919081815260200182805480156104c657602002820191906000526020600020905b8154815260200190600101908083116104b2575b5050505050815250508152602001600382016040518060600160405290816000820160009054906101000a900473ffffffffffffffffffffffffffffffffffffffff1673ffffffffffffffffffffffffffffffffffffffff1673ffffffffffffffffffffffffffffffffffffffff1681526020016000820160149054906101000a900460ff16600281111561055e5761055d611972565b5b60028111156105705761056f611972565b5b8152602001600182018054806020026020016040519081016040528092919081815260200182805480156105c357602002820191906000526020600020905b8154815260200190600101908083116105af575b50505050508152505081526020016005820180546105e090612072565b80601f016020809104026020016040519081016040528092919081815260200182805461060c90612072565b80156106595780601f1061062e57610100808354040283529160200191610659565b820191906000526020600020905b81548152906001019060200180831161063c57829003601f168201915b505050505081526020016006820160009054906101000a900460ff16600481111561068757610686611972565b5b600481111561069957610698611972565b5b8152505090508273ffffffffffffffffffffffffffffffffffffffff1681602001516000015173ffffffffffffffffffffffffffffffffffffffff16146106df57600080fd5b60006106ef86836060015161132b565b905081602001516000015173ffffffffffffffffffffffffffffffffffffffff168173ffffffffffffffffffffffffffffffffffffffff1614925050509392505050565b600281565b6003602052806000526040600020600091509050806000015490806001016040518060600160405290816000820160009054906101000a900473ffffffffffffffffffffffffffffffffffffffff1673ffffffffffffffffffffffffffffffffffffffff1673ffffffffffffffffffffffffffffffffffffffff1681526020016000820160149054906101000a900460ff1660028111156107dc576107db611972565b5b60028111156107ee576107ed611972565b5b81526020016001820180548060200260200160405190810160405280929190818152602001828054801561084157602002820191906000526020600020905b81548152602001906001019080831161082d575b50505050508152505090806003016040518060600160405290816000820160009054906101000a900473ffffffffffffffffffffffffffffffffffffffff1673ffffffffffffffffffffffffffffffffffffffff1673ffffffffffffffffffffffffffffffffffffffff1681526020016000820160149054906101000a900460ff1660028111156108d5576108d4611972565b5b60028111156108e7576108e6611972565b5b81526020016001820180548060200260200160405190810160405280929190818152602001828054801561093a57602002820191906000526020600020905b815481526020019060010190808311610926575b5050505050815250509080600501805461095390612072565b80601f016020809104026020016040519081016040528092919081815260200182805461097f90612072565b80156109cc5780601f106109a1576101008083540402835291602001916109cc565b820191906000526020600020905b8154815290600101906020018083116109af57829003601f168201915b5050505050908060060160009054906101000a900460ff16905085565b600181815481106109f957600080fd5b906000526020600020016000915090505481565b6000610a1882611403565b90506000600267ffffffffffffffff811115610a3757610a36611d0c565b5b604051908082528060200260200182016040528015610a655781602001602082028036833780820191505090505b509050600060405180606001604052808673ffffffffffffffffffffffffffffffffffffffff168152602001846002811115610aa457610aa3611972565b5b815260200183815250905080600460008773ffffffffffffffffffffffffffffffffffffffff1673ffffffffffffffffffffffffffffffffffffffff16815260200190815260200160002060008201518160000160006101000a81548173ffffffffffffffffffffffffffffffffffffffff021916908373ffffffffffffffffffffffffffffffffffffffff16021790555060208201518160000160146101000a81548160ff02191690836002811115610b6157610b60611972565b5b02179055506040820151816001019080519060200190610b829291906116ff565b509050507ff5a37da00f0e4029ee2682b1919ee55d7e6f9d7492237aad9bd1aea7d53d4874816000015185604051610bbb9291906120a3565b60405180910390a15050505050565b600080600460008873ffffffffffffffffffffffffffffffffffffffff1673ffffffffffffffffffffffffffffffffffffffff1681526020019081526020016000206040518060600160405290816000820160009054906101000a900473ffffffffffffffffffffffffffffffffffffffff1673ffffffffffffffffffffffffffffffffffffffff1673ffffffffffffffffffffffffffffffffffffffff1681526020016000820160149054906101000a900460ff166002811115610c9257610c91611972565b5b6002811115610ca457610ca3611972565b5b815260200160018201805480602002602001604051908101604052809291908181526020018280548015610cf757602002820191906000526020600020905b815481526020019060010190808311610ce3575b505050505081525050905060006002811115610d1657610d15611972565b5b81602001516002811115610d2d57610d2c611972565b5b14610d3757600080fd5b6000600460008873ffffffffffffffffffffffffffffffffffffffff1673ffffffffffffffffffffffffffffffffffffffff1681526020019081526020016000206040518060600160405290816000820160009054906101000a900473ffffffffffffffffffffffffffffffffffffffff1673ffffffffffffffffffffffffffffffffffffffff1673ffffffffffffffffffffffffffffffffffffffff1681526020016000820160149054906101000a900460ff166002811115610dfe57610dfd611972565b5b6002811115610e1057610e0f611972565b5b815260200160018201805480602002602001604051908101604052809291908181526020018280548015610e6357602002820191906000526020600020905b815481526020019060010190808311610e4f575b505050505081525050905060016002811115610e8257610e81611972565b5b81602001516002811115610e9957610e98611972565b5b14610ea357600080fd5b6000610eae87611526565b905060008080549050905060006040518060a00160405280838152602001868152602001858152602001888152602001846004811115610ef157610ef0611972565b5b815250905060008080549050908060018154018082558091505060019003906000526020600020016000909190919091505580600360006001600080549050610f3a9190612102565b81526020019081526020016000206000820151816000015560208201518160010160008201518160000160006101000a81548173ffffffffffffffffffffffffffffffffffffffff021916908373ffffffffffffffffffffffffffffffffffffffff16021790555060208201518160000160146101000a81548160ff02191690836002811115610fcd57610fcc611972565b5b02179055506040820151816001019080519060200190610fee9291906116ff565b50505060408201518160030160008201518160000160006101000a81548173ffffffffffffffffffffffffffffffffffffffff021916908373ffffffffffffffffffffffffffffffffffffffff16021790555060208201518160000160146101000a81548160ff0219169083600281111561106c5761106b611972565b5b0217905550604082015181600101908051906020019061108d9291906116ff565b50505060608201518160050190816110a591906122e2565b5060808201518160060160006101000a81548160ff021916908360048111156110d1576110d0611972565b5b02179055509050508973ffffffffffffffffffffffffffffffffffffffff168b73ffffffffffffffffffffffffffffffffffffffff167fc9e3e855764ebb21ed83dcdf8ed5e1398c752d6446308e092c28a84a77a199bd600160008054905061113a9190612102565b60405161114791906118fe565b60405180910390a360016000805490506111619190612102565b9550505050505095945050505050565b600080600267ffffffffffffffff81111561118f5761118e611d0c565b5b6040519080825280602002602001820160405280156111bd5781602001602082028036833780820191505090505b50905060006001805490509050600060405180608001604052808381526020018781526020018673ffffffffffffffffffffffffffffffffffffffff1681526020018481525090508060026000848152602001908152602001600020600082015181600001556020820151816001019081611238919061240f565b5060408201518160020160006101000a81548173ffffffffffffffffffffffffffffffffffffffff021916908373ffffffffffffffffffffffffffffffffffffffff160217905550606082015181600301908051906020019061129c9291906116ff565b509050506001829080600181540180825580915050600190039060005260206000200160009091909190915055806040015173ffffffffffffffffffffffffffffffffffffffff167fe85391abb5e51659c581dd95107048251657ee66755655cc08c9c0ec3a0a9139826000015160405161131791906118fe565b60405180910390a281935050505092915050565b60008060008061133a856116cd565b92509250925060006040518060400160405280601c81526020017f19457468657265756d205369676e6564204d6573736167653a0a33320000000081525090506000818860405160200161138f92919061253e565b604051602081830303815290604052805190602001209050600181868686604051600081526020016040526040516113ca9493929190612591565b6020604051602081039080840390855afa1580156113ec573d6000803e3d6000fd5b505050602060405103519550505050505092915050565b600080826040516020016114179190612612565b604051602081830303815290604052805190602001209050600060405160200161144090612675565b6040516020818303038152906040528051906020012090506000604051602001611469906126d6565b604051602081830303815290604052805190602001209050600060405160200161149290612737565b6040516020818303038152906040528051906020012090508284036114be576000945050505050611521565b8184036114d2576001945050505050611521565b8084036114e6576002945050505050611521565b6040517f08c379a000000000000000000000000000000000000000000000000000000000815260040161151890612798565b60405180910390fd5b919050565b6000808260405160200161153a9190612612565b604051602081830303815290604052805190602001209050600060405160200161156390612804565b604051602081830303815290604052805190602001209050600060405160200161158c90612865565b60405160208183030381529060405280519060200120905060006040516020016115b5906128c6565b60405160208183030381529060405280519060200120905060006040516020016115de90612927565b604051602081830303815290604052805190602001209050600060405160200161160790612988565b60405160208183030381529060405280519060200120905084860361163557600096505050505050506116c8565b83860361164b57600196505050505050506116c8565b82860361166157600296505050505050506116c8565b81860361167757600396505050505050506116c8565b80860361168d57600496505050505050506116c8565b6040517f08c379a00000000000000000000000000000000000000000000000000000000081526004016116bf90612a0f565b60405180910390fd5b919050565b600080600060418451146116e057600080fd5b6020840151915060408401519050606084015160001a92509193909250565b82805482825590600052602060002090810192821561173b579160200282015b8281111561173a57825182559160200191906001019061171f565b5b509050611748919061174c565b5090565b5b8082111561176557600081600090555060010161174d565b5090565b6000604051905090565b600080fd5b600080fd5b6000819050919050565b6117908161177d565b811461179b57600080fd5b50565b6000813590506117ad81611787565b92915050565b6000602082840312156117c9576117c8611773565b5b60006117d78482850161179e565b91505092915050565b6117e98161177d565b82525050565b600081519050919050565b600082825260208201905092915050565b60005b8381101561182957808201518184015260208101905061180e565b60008484015250505050565b6000601f19601f8301169050919050565b6000611851826117ef565b61185b81856117fa565b935061186b81856020860161180b565b61187481611835565b840191505092915050565b600073ffffffffffffffffffffffffffffffffffffffff82169050919050565b60006118aa8261187f565b9050919050565b6118ba8161189f565b82525050565b60006060820190506118d560008301866117e0565b81810360208301526118e78185611846565b90506118f660408301846118b1565b949350505050565b600060208201905061191360008301846117e0565b92915050565b6119228161189f565b811461192d57600080fd5b50565b60008135905061193f81611919565b92915050565b60006020828403121561195b5761195a611773565b5b600061196984828501611930565b91505092915050565b7f4e487b7100000000000000000000000000000000000000000000000000000000600052602160045260246000fd5b600381106119b2576119b1611972565b5b50565b60008190506119c3826119a1565b919050565b60006119d3826119b5565b9050919050565b6119e3816119c8565b82525050565b60006040820190506119fe60008301856118b1565b611a0b60208301846119da565b9392505050565b6000819050919050565b611a2581611a12565b8114611a3057600080fd5b50565b600081359050611a4281611a1c565b92915050565b600080600060608486031215611a6157611a60611773565b5b6000611a6f86828701611a33565b9350506020611a808682870161179e565b9250506040611a9186828701611930565b9150509250925092565b60008115159050919050565b611ab081611a9b565b82525050565b6000602082019050611acb6000830184611aa7565b92915050565b611ada8161189f565b82525050565b611ae9816119c8565b82525050565b600081519050919050565b600082825260208201905092915050565b6000819050602082019050919050565b611b248161177d565b82525050565b6000611b368383611b1b565b60208301905092915050565b6000602082019050919050565b6000611b5a82611aef565b611b648185611afa565b9350611b6f83611b0b565b8060005b83811015611ba0578151611b878882611b2a565b9750611b9283611b42565b925050600181019050611b73565b5085935050505092915050565b6000606083016000830151611bc56000860182611ad1565b506020830151611bd86020860182611ae0565b5060408301518482036040860152611bf08282611b4f565b9150508091505092915050565b600081519050919050565b600082825260208201905092915050565b6000611c2482611bfd565b611c2e8185611c08565b9350611c3e81856020860161180b565b611c4781611835565b840191505092915050565b60058110611c6357611c62611972565b5b50565b6000819050611c7482611c52565b919050565b6000611c8482611c66565b9050919050565b611c9481611c79565b82525050565b600060a082019050611caf60008301886117e0565b8181036020830152611cc18187611bad565b90508181036040830152611cd58186611bad565b90508181036060830152611ce98185611c19565b9050611cf86080830184611c8b565b9695505050505050565b600080fd5b600080fd5b7f4e487b7100000000000000000000000000000000000000000000000000000000600052604160045260246000fd5b611d4482611835565b810181811067ffffffffffffffff82111715611d6357611d62611d0c565b5b80604052505050565b6000611d76611769565b9050611d828282611d3b565b919050565b600067ffffffffffffffff821115611da257611da1611d0c565b5b611dab82611835565b9050602081019050919050565b82818337600083830152505050565b6000611dda611dd584611d87565b611d6c565b905082815260208101848484011115611df657611df5611d07565b5b611e01848285611db8565b509392505050565b600082601f830112611e1e57611e1d611d02565b5b8135611e2e848260208601611dc7565b91505092915050565b60008060408385031215611e4e57611e4d611773565b5b6000611e5c85828601611930565b925050602083013567ffffffffffffffff811115611e7d57611e7c611778565b5b611e8985828601611e09565b9150509250929050565b600067ffffffffffffffff821115611eae57611ead611d0c565b5b611eb782611835565b9050602081019050919050565b6000611ed7611ed284611e93565b611d6c565b905082815260208101848484011115611ef357611ef2611d07565b5b611efe848285611db8565b509392505050565b600082601f830112611f1b57611f1a611d02565b5b8135611f2b848260208601611ec4565b91505092915050565b600080600080600060a08688031215611f5057611f4f611773565b5b6000611f5e88828901611930565b9550506020611f6f88828901611930565b945050604086013567ffffffffffffffff811115611f9057611f8f611778565b5b611f9c88828901611e09565b9350506060611fad8882890161179e565b925050608086013567ffffffffffffffff811115611fce57611fcd611778565b5b611fda88828901611f06565b9150509295509295909350565b60008060408385031215611ffe57611ffd611773565b5b600083013567ffffffffffffffff81111561201c5761201b611778565b5b61202885828601611e09565b925050602061203985828601611930565b9150509250929050565b7f4e487b7100000000000000000000000000000000000000000000000000000000600052602260045260246000fd5b6000600282049050600182168061208a57607f821691505b60208210810361209d5761209c612043565b5b50919050565b60006040820190506120b860008301856118b1565b81810360208301526120ca8184611846565b90509392505050565b7f4e487b7100000000000000000000000000000000000000000000000000000000600052601160045260246000fd5b600061210d8261177d565b91506121188361177d565b92508282039050818111156121305761212f6120d3565b5b92915050565b60008190508160005260206000209050919050565b60006020601f8301049050919050565b600082821b905092915050565b6000600883026121987fffffffffffffffffffffffffffffffffffffffffffffffffffffffffffffffff8261215b565b6121a2868361215b565b95508019841693508086168417925050509392505050565b6000819050919050565b60006121df6121da6121d58461177d565b6121ba565b61177d565b9050919050565b6000819050919050565b6121f9836121c4565b61220d612205826121e6565b848454612168565b825550505050565b600090565b612222612215565b61222d8184846121f0565b505050565b5b818110156122515761224660008261221a565b600181019050612233565b5050565b601f8211156122965761226781612136565b6122708461214b565b8101602085101561227f578190505b61229361228b8561214b565b830182612232565b50505b505050565b600082821c905092915050565b60006122b96000198460080261229b565b1980831691505092915050565b60006122d283836122a8565b9150826002028217905092915050565b6122eb82611bfd565b67ffffffffffffffff81111561230457612303611d0c565b5b61230e8254612072565b612319828285612255565b600060209050601f83116001811461234c576000841561233a578287015190505b61234485826122c6565b8655506123ac565b601f19841661235a86612136565b60005b828110156123825784890151825560018201915060208501945060208101905061235d565b8683101561239f578489015161239b601f8916826122a8565b8355505b6001600288020188555050505b505050505050565b60008190508160005260206000209050919050565b601f82111561240a576123db816123b4565b6123e48461214b565b810160208510156123f3578190505b6124076123ff8561214b565b830182612232565b50505b505050565b612418826117ef565b67ffffffffffffffff81111561243157612430611d0c565b5b61243b8254612072565b6124468282856123c9565b600060209050601f8311600181146124795760008415612467578287015190505b61247185826122c6565b8655506124d9565b601f198416612487866123b4565b60005b828110156124af5784890151825560018201915060208501945060208101905061248a565b868310156124cc57848901516124c8601f8916826122a8565b8355505b6001600288020188555050505b505050505050565b600081905092915050565b60006124f782611bfd565b61250181856124e1565b935061251181856020860161180b565b80840191505092915050565b6000819050919050565b61253861253382611a12565b61251d565b82525050565b600061254a82856124ec565b91506125568284612527565b6020820191508190509392505050565b61256f81611a12565b82525050565b600060ff82169050919050565b61258b81612575565b82525050565b60006080820190506125a66000830187612566565b6125b36020830186612582565b6125c06040830185612566565b6125cd6060830184612566565b95945050505050565b600081905092915050565b60006125ec826117ef565b6125f681856125d6565b935061260681856020860161180b565b80840191505092915050565b600061261e82846125e1565b915081905092915050565b7f4953535545520000000000000000000000000000000000000000000000000000600082015250565b600061265f6006836125d6565b915061266a82612629565b600682019050919050565b600061268082612652565b9150819050919050565b7f50524f5645520000000000000000000000000000000000000000000000000000600082015250565b60006126c06006836125d6565b91506126cb8261268a565b600682019050919050565b60006126e1826126b3565b9150819050919050565b7f5645524946494552000000000000000000000000000000000000000000000000600082015250565b60006127216008836125d6565b915061272c826126eb565b600882019050919050565b600061274282612714565b9150819050919050565b7f726563656976656420696e76616c696420656e7469747920726f6c6500000000600082015250565b6000612782601c836117fa565b915061278d8261274c565b602082019050919050565b600060208201905081810360008301526127b181612775565b9050919050565b7f4d414e5546414354555245440000000000000000000000000000000000000000600082015250565b60006127ee600c836125d6565b91506127f9826127b8565b600c82019050919050565b600061280f826127e1565b9150819050919050565b7f44454c49564552494e475f494e5445524e4154494f4e414c0000000000000000600082015250565b600061284f6018836125d6565b915061285a82612819565b601882019050919050565b600061287082612842565b9150819050919050565b7f53544f5245440000000000000000000000000000000000000000000000000000600082015250565b60006128b06006836125d6565b91506128bb8261287a565b600682019050919050565b60006128d1826128a3565b9150819050919050565b7f44454c49564552494e475f4c4f43414c00000000000000000000000000000000600082015250565b60006129116010836125d6565b915061291c826128db565b601082019050919050565b600061293282612904565b9150819050919050565b7f44454c4956455245440000000000000000000000000000000000000000000000600082015250565b60006129726009836125d6565b915061297d8261293c565b600982019050919050565b600061299382612965565b9150819050919050565b7f726563656976656420696e76616c69642063657274696669636174652073746160008201527f7475730000000000000000000000000000000000000000000000000000000000602082015250565b60006129f96023836117fa565b9150612a048261299d565b604082019050919050565b60006020820190508181036000830152612a28816129ec565b905091905056fea26469706673582212208a6fb5e711fc7f5faf5f238afc8a38b6610a494e1c92ef25e4f5c84d6a1447f064736f6c63430008130033",
  "immutableReferences": {},
  "source": "// SPDX-License-Identifier: MIT\npragma solidity >= 0.7 < 0.9;\n\nlibrary CryptoSuite {\n    function splitSignature(bytes memory sig) internal pure returns(uint8 v, bytes32 r, bytes32 s) {\n        require(sig.length == 65);\n\n        assembly {\n            // first 32 bytes\n            r := mload(add(sig, 32))\n\n            // next 32 bytes\n            s := mload(add(sig, 64))\n\n            // last 32 bytes\n            v := byte(0, mload(add(sig, 96)))\n        }\n\n        return (v, r, s);\n    }\n\n    function recoverSigner(bytes32 message, bytes memory sig) internal pure returns (address) {\n        (uint8 v, bytes32 r, bytes32 s) = splitSignature(sig);\n        bytes memory prefix = \"\\x19Ethereum Signed Message:\\n32\";\n\n        bytes32 prefixedHash = keccak256(abi.encodePacked(prefix, message));\n\n        return ecrecover(prefixedHash, v, r, s);\n    }\n}\n\ncontract SupplyChain {\n    enum CertificateStatus {MANUFACTURED, DELIVERING_INTERNATIONAL, STORED, DELIVERING_LOCAL, DELIVERED}\n\n    struct Certificate {\n        uint id;\n        Entity issuer;\n        Entity prover;\n        bytes signature;\n        CertificateStatus status;\n    }\n\n    enum Role {ISSUER, PROVER, VERIFIER}\n\n    struct Entity {\n        address id;\n        Role role;\n        // keep track of all the certificates the entity was involved in\n        uint[] certificateIds;\n    }\n\n    struct VaccineBatch {\n        uint id;\n        string brand;\n        address manufacturer;\n        uint[] certficateIds;\n    }\n\n    uint public constant MAX_CERTIFICATIONS = 2;\n    \n    uint[] public certificateIds;\n    uint[] public vaccineBatchIds;\n\n    mapping(uint => VaccineBatch) public vaccineBatches;\n    mapping(uint => Certificate) public certificates;\n    mapping(address => Entity) public entities;\n\n    event AddEntity(address entityId, string entityRole);\n    event AddVaccineBatch(uint id, address indexed manufacturer);\n    event IssueCertificate(address indexed issuer, address indexed prover, uint certificateId);\n\n    function addEntity(address _id, string memory _role) public {\n        Role role = unmarshalRole(_role);\n\n        uint[] memory _certificateIds = new uint[](MAX_CERTIFICATIONS);\n        Entity memory entity = Entity(_id, role, _certificateIds);\n        entities[_id] = entity;\n\n        emit AddEntity(entity.id, _role);\n    }\n\n    function addVaccineBatch(string memory brand, address manufacturer) public returns(uint){\n\n        uint[] memory _certificateIds = new uint[](MAX_CERTIFICATIONS);\n        uint id = vaccineBatchIds.length;\n        VaccineBatch memory batch = VaccineBatch(id, brand, manufacturer, _certificateIds);\n        vaccineBatches[id] = batch;\n\n        vaccineBatchIds.push(id);\n\n        emit AddVaccineBatch(batch.id, batch.manufacturer);\n        return id;\n    }\n\n    function unmarshalRole(string memory _role) private pure returns(Role role) {\n        bytes32 encodedRole = keccak256(abi.encodePacked(_role));\n        bytes32 encodedRole0 = keccak256(abi.encodePacked(\"ISSUER\"));\n        bytes32 encodedRole1 = keccak256(abi.encodePacked(\"PROVER\"));\n        bytes32 encodedRole2 = keccak256(abi.encodePacked(\"VERIFIER\"));\n\n        if (encodedRole == encodedRole0) {\n            return Role.ISSUER;\n        }\n        else if (encodedRole == encodedRole1) {\n            return Role.PROVER;\n        }\n        else if (encodedRole == encodedRole2) {\n            return Role.VERIFIER;\n        }\n        \n        revert(\"received invalid entity role\");\n\n    }\n\n    function issueCertificate(\n        address _issuer, address _prover, string memory _status,\n        uint vaccineBatchId, bytes memory signature) public returns (uint) {\n            Entity memory issuer = entities[_issuer];\n            require (issuer.role == Role.ISSUER);\n\n            Entity memory prover = entities[_prover];\n            require (prover.role == Role.PROVER);\n\n            CertificateStatus status = unmarshalStatus(_status);\n            uint id = certificateIds.length;\n\n            Certificate memory certificate = Certificate(id, issuer, prover, signature, status);\n\n            certificateIds.push(certificateIds.length);\n            certificates[certificateIds.length-1] = certificate;\n\n            emit IssueCertificate(_issuer, _prover, certificateIds.length-1);\n            return certificateIds.length-1;\n        }\n\n    function isMatchingSignature(bytes32 message, uint id, address issuer) public view returns (bool) {\n        Certificate memory cert = certificates[id];\n        require (cert.issuer.id == issuer);\n\n        address recoveredSigner = CryptoSuite.recoverSigner(message, cert.signature);\n\n        return recoveredSigner == cert.issuer.id;\n    }\n    \n    function unmarshalStatus(string memory _status) private pure returns(CertificateStatus status) {\n        bytes32 encodedStatus = keccak256(abi.encodePacked(_status));\n        bytes32 encodedStatus0 = keccak256(abi.encodePacked(\"MANUFACTURED\"));\n        bytes32 encodedStatus1 = keccak256(abi.encodePacked(\"DELIVERING_INTERNATIONAL\"));\n        bytes32 encodedStatus2 = keccak256(abi.encodePacked(\"STORED\"));\n        bytes32 encodedStatus3 = keccak256(abi.encodePacked(\"DELIVERING_LOCAL\"));\n        bytes32 encodedStatus4 = keccak256(abi.encodePacked(\"DELIVERED\"));\n\n        if (encodedStatus == encodedStatus0) {\n            return CertificateStatus.MANUFACTURED;\n        }\n        else if (encodedStatus == encodedStatus1) {\n            return CertificateStatus.DELIVERING_INTERNATIONAL;\n        }\n        else if (encodedStatus == encodedStatus2) {\n            return CertificateStatus.STORED;\n        }\n        else if (encodedStatus == encodedStatus3) {\n            return CertificateStatus.DELIVERING_LOCAL;\n        }\n        else if (encodedStatus == encodedStatus4) {\n            return CertificateStatus.DELIVERED;\n        }\n        \n        revert(\"received invalid certificate status\");\n\n    }\n}",
  "sourcePath": "/home/liam/Liam/Uni/Magistrale/Blockchain/traceability-DHT/contracts/SupplyChain.sol",
  "compiler": {
    "name": "solc",
    "version": "0.8.19+commit.7dd6d404.Emscripten.clang"
  },
  "schemaVersion": "3.4.13",
  "updatedAt": "2023-04-17T17:07:17.891Z",
  "devdoc": {
    "kind": "dev",
    "methods": {},
    "version": 1
  },
  "userdoc": {
    "kind": "user",
    "methods": {},
    "version": 1
  }
}